:100000000C9462000C948A000C948A000C948A0070
:100010000C948A000C948A000C948A000C948A0038
:100020000C948A000C948A000C948A000C948A0028
:100030000C948A000C948A000C948A000C948A0018
:100040000C94FE000C948A000C948A000C948A0094
:100050000C948A000C948A000C948A000C948A00F8
:100060000C948A000C948A000000000024002700F1
:100070002A0000000000250028002B0000000000DE
:1000800023002600290004040404040404040202DA
:100090000202020203030303030301020408102007
:1000A0004080010204081020010204081020000012
:1000B0000007000201000003040600000000000029
:1000C0000000C50011241FBECFEFD8E0DEBFCDBFBA
:1000D00011E0A0E0B1E0ECE8F5E002C005900D927F
:1000E000A630B107D9F711E0A6E0B1E001C01D923A
:1000F000A331B107E1F710E0C4ECD0E004C02297CF
:10010000FE010E94C002C23CD107C9F70E94AF02A3
:100110000C94C4020C9400000F931F938C01842F45
:10012000F80161834283238360E00E941902F80191
:1001300010821F910F9108950F931F93CF93DF9318
:10014000EC01162F042F898160E00E94190281E0E2
:1001500090E002C0880F991F1A95E2F728810023CA
:1001600019F48095282301C0282B28838B816A816C
:1001700041E028810E946D02898161E00E9419029C
:10018000DF91CF911F910F91089586E091E06091EA
:10019000000140910201209104010E948C00089509
:1001A000FF920F931F9301E0FF24F39410E086E089
:1001B00091E0612F402F0E949C0064EF71E080E08D
:1001C00090E00E9446011F5F183089F768EE73E0E7
:1001D00080E090E00E9446010F25E8CF8091000169
:1001E00061E00E94DA018091020161E00E94DA017F
:1001F0008091040161E00E94DA0108951F920F923C
:100200000FB60F9211242F933F938F939F93AF9329
:10021000BF9380910E0190910F01A0911001B091B8
:100220001101309112010196A11DB11D232F2D5FE7
:100230002D3720F02D570196A11DB11D20931201DD
:1002400080930E0190930F01A0931001B0931101C0
:1002500080910A0190910B01A0910C01B0910D01C8
:100260000196A11DB11D80930A0190930B01A093EB
:100270000C01B0930D01BF91AF919F918F913F9170
:100280002F910F900FBE0F901F9018959B01AC01FE
:100290007FB7F89480910A0190910B01A0910C0115
:1002A000B0910D0166B5A89B05C06F3F19F001968E
:1002B000A11DB11D7FBFBA2FA92F982F8827860FA8
:1002C000911DA11DB11D62E0880F991FAA1FBB1FC0
:1002D0006A95D1F7BC012DC0FFB7F89480910A014F
:1002E00090910B01A0910C01B0910D01E6B5A89B76
:1002F00005C0EF3F19F00196A11DB11DFFBFBA2F38
:10030000A92F982F88278E0F911DA11DB11DE2E006
:10031000880F991FAA1FBB1FEA95D1F7861B970B61
:10032000885E9340C8F221503040404050406851B0
:100330007C4F211531054105510571F608957894DA
:1003400084B5826084BD84B5816084BD85B58260DA
:1003500085BD85B5816085BDEEE6F0E08081816078
:100360008083E1E8F0E01082808182608083808178
:1003700081608083E0E8F0E0808181608083E1EB50
:10038000F0E0808184608083E0EBF0E08081816038
:100390008083EAE7F0E080818460808380818260EE
:1003A00080838081816080838081806880831092D7
:1003B000C1000895CF93DF93482F50E0CA018656BD
:1003C0009F4FFC0134914A575F4FFA018491882373
:1003D00069F190E0880F991FFC01E859FF4FA59142
:1003E000B491FC01EE58FF4FC591D491662351F4AE
:1003F0002FB7F8948C91932F909589238C938881B3
:1004000089230BC0623061F42FB7F8948C91932F3D
:10041000909589238C938881832B88832FBF06C076
:100420009FB7F8948C91832B8C939FBFDF91CF91D2
:100430000895482F50E0CA0182559F4FFC01249136
:10044000CA0186569F4FFC0194914A575F4FFA01AB
:100450003491332309F440C0222351F1233071F049
:10046000243028F42130A1F0223011F514C02630B8
:10047000B1F02730C1F02430D9F404C0809180005D
:100480008F7703C0809180008F7D8093800010C0A3
:1004900084B58F7702C084B58F7D84BD09C08091FB
:1004A000B0008F7703C08091B0008F7D8093B00043
:1004B000E32FF0E0EE0FFF1FEE58FF4FA591B49130
:1004C0002FB7F894662321F48C919095892302C06C
:1004D0008C91892B8C932FBF0895BF92CF92DF927E
:1004E000EF92FF920F931F93CF93DF93E82EF62E98
:1004F000B42EC7E0D0E0022F10E087E0C82ED12C48
:10050000BB2059F4B6016C1B7D0BC80102C0959548
:1005100087956A95E2F7BC0107C0B8010C2E02C0AE
:10052000759567950A94E2F761708E2D0E94190205
:100530008F2D61E00E9419028F2D60E00E94190248
:1005400021979FEFCF3FD907D9F6DF91CF911F9128
:100550000F91FF90EF90DF90CF90BF900895CF93D1
:10056000DF930E949F010E94EE00C0E0D0E00E9455
:10057000D0002097E1F30E940000F9CFEE0FFF1F9B
:0C0580000590F491E02D0994F894FFCF51
:06058C0008000C000B004A
:00000001FF
