:100000000C9462000C948A000C948A000C948A0070
:100010000C948A000C948A000C948A000C948A0038
:100020000C948A000C948A000C948A000C948A0028
:100030000C948A000C948A000C948A000C948A0018
:100040000C94B4050C948A000C947E070C94C5079C
:100050000C948A000C948A000C948A000C948A00F8
:100060000C948A000C948A000000000024002700F1
:100070002A0000000000250028002B0000000000DE
:1000800023002600290004040404040404040202DA
:100090000202020203030303030301020408102007
:1000A0004080010204081020010204081020000012
:1000B0000007000201000003040600000000000029
:1000C00000002B0911241FBECFEFD8E0DEBFCDBF4B
:1000D00012E0A0E0B1E0E0EEF5E102C005900D9283
:1000E000A231B107D9F712E0A2E1B2E001C01D923E
:1000F000AA3CB107E1F710E0C4ECD0E004C02297BD
:10010000FE010E94EA0AC23CD107C9F70E947B099E
:100110000C94EE0A0C940000CF93DF93BC01823064
:10012000910510F462E070E0A091C802B091C9029C
:10013000ED01E0E0F0E040E050E021C088819981ED
:100140008617970769F48A819B81309719F093830A
:10015000828304C09093C9028093C802FE0134C018
:100160006817790738F44115510519F08417950778
:1001700008F4AC01FE018A819B819C01E901209772
:10018000E9F641155105A9F1CA01861B970B0497A1
:1001900008F4BA01E0E0F0E02AC08D919C9111973B
:1001A00084179507F9F46417750781F412968D91F9
:1001B0009C911397309719F09383828304C0909396
:1001C000C9028093C802FD0132964CC0CA01861B49
:1001D000970BFD01E80FF91F6193719302978D93BF
:1001E0009C9340C0FD01828193819C01D9011097AD
:1001F000A1F68091C6029091C702892B41F48091AB
:10020000E9019091EA019093C7028093C602409160
:10021000EB015091EC014115510541F44DB75EB72A
:100220008091E7019091E801481B590B2091C6028B
:100230003091C702CA01821B930B8617970780F083
:10024000AB014E5F5F4F8417950750F0420F531F6D
:100250005093C7024093C602F9016193719302C0A3
:10026000E0E0F0E0CF01DF91CF910895CF93DF93ED
:10027000009709F450C0EC0122971B821A82A091CA
:10028000C802B091C902109709F140E050E0AC17E4
:10029000BD0708F1BB83AA83FE0121913191E20FD2
:1002A000F31FAE17BF0779F48D919C911197280F1A
:1002B000391F2E5F3F4F3983288312968D919C9171
:1002C00013979B838A834115510571F4D093C9021A
:1002D000C093C80220C012968D919C911397AD01D6
:1002E000009711F0DC01D3CFFA01D383C2832191AF
:1002F0003191E20FF31FCE17DF0769F488819981EE
:10030000280F391F2E5F3F4FFA01318320838A81E6
:100310009B8193838283DF91CF9108950F931F93E5
:100320008C0187EA92E060E071E00E94940AF80193
:1003300084819581678140E00E94B70481E090E06C
:100340000E946306F80184819581678141E00E94E3
:10035000B70481E090E00E946306F80184819581F2
:10036000678140E00E94B70484E690E00E94630643
:100370001F910F910895CF92DF92EF92FF920F930A
:100380001F93CF93DF936C01162F87EA92E06DE005
:1003900071E00E94910A87EA92E0612F42E050E00A
:1003A0000E94730A7601C0E0D0E0012F10E0A8019E
:1003B0000C2E02C0559547950A94E2F74170F6015C
:1003C00084819581F70160850E94B7042196089485
:1003D000E11CF11CC830D10551F7C6010E948E0105
:1003E000DF91CF911F910F91FF90EF90DF90CF9011
:1003F0000895CF92DF92EF92FF920F931F93CF93C6
:10040000DF936C01162F87EA92E069E171E00E94A8
:10041000910A87EA92E0612F42E050E00E94730A5D
:100420007601C0E0D0E0012F10E0A8010C2E02C040
:10043000559547950A94E2F74170F60184819581BC
:10044000F70160850E94B70421960894E11CF11C15
:10045000C430D10551F7C6010E948E01DF91CF91C2
:100460001F910F91FF90EF90DF90CF9008950F9321
:100470001F93CF93DF93EC01062F142F87EA92E0AE
:1004800065E271E00E94910A87EA92E0602F40E104
:1004900050E00E94610A87EA92E06BE271E00E94FC
:1004A000910A87EA92E0612F4AE050E00E94730AC5
:1004B0008C819D816E81412F0E94B704888984FFC1
:1004C00005C0CE01602F0E94BB010EC0602F70E0FE
:1004D00084E0759567958A95E1F7CE010E94F90150
:1004E000CE01602F0E94F901DF91CF911F910F91F2
:1004F0000895DF92EF92FF920F931F938C01D62EF7
:1005000097EAE92E92E0F92EC7016DE271E00E94B0
:10051000910AC7016D2D40E150E00E94730AC801A5
:100520006D2D41E00E94370281E090E01F910F9114
:10053000FF90EF90DF900895DF92EF92FF920F937C
:100540001F938C01D62E27EAE22E22E0F22EC7015D
:1005500064E371E00E94910AC7016D2D40E150E013
:100560000E94730AC8016D2D40E00E9437021F915E
:100570000F91FF90EF90DF900895FC016189862F25
:100580008460818B6C60CF010E949C020895DF9390
:10059000CF93CDB7DEB728970FB6F894DEBF0FBE66
:1005A000CDBF9C01FE013196A9EFB1E088E00D902E
:1005B00001928150E1F7F9018389481710F0482F23
:1005C0004150E42FF0E0EE0FFF1FEC0FFD1F818183
:1005D000680F6068C9010E949C0228960FB6F894C3
:1005E000DEBF0FBECDBFCF91DF91089561E00E94C5
:1005F0009C0280ED97E00E9463060895FF920F939E
:100600001F93CF93DF93EC01162F042FF22E87EA6E
:1006100092E06DE371E00E94910A87EA92E0612F17
:100620004AE050E00E94610A87EA92E06BE271E0E2
:100630000E94910A87EA92E0602F4AE050E00E940F
:10064000610A87EA92E06BE271E00E94910A87EA10
:1006500092E06F2D4AE050E00E94730A023018F0D9
:1006600088898860888B0B8B1C8AFF2029F00130D9
:1006700019F488898460888B80E593EC0E94630676
:100680008C819D816E8140E00E94B7048C819D81A8
:100690006F8140E00E94B704688964FD1DC0CE01EF
:1006A00063E00E94F90184E991E10E946306CE01B2
:1006B00063E00E94F90184E991E10E946306CE01A2
:1006C00063E00E94F90186E990E00E946306CE0192
:1006D00062E00E94F90116C06062CE010E949C0295
:1006E00084E991E10E94630668896062CE010E94FC
:1006F0009C0286E990E00E94630668896062CE01F0
:100700000E949C0268896062CE010E949C0284E083
:10071000898BCE010E94BD02CE010E94F60282E0CA
:100720008A8BCE0166E00E949C02DF91CF911F91DF
:100730000F91FF9008952F923F924F925F926F9288
:100740007F928F929F92AF92BF92CF92DF92EF9261
:10075000FF920F931F93DF93CF93CDB7DEB71C01AA
:10076000D62EB42E922E77EA672E72E0772EC30132
:100770006CE471E00E94910AC3016D2D4AE050E0E3
:100780000E94610A6BE2462E61E0562EC301B2015F
:100790000E94910AC3016B2D4AE050E00E94610A59
:1007A000C301B2010E94910AC301692D4AE050E0E1
:1007B0000E94610AC301B2010E94910AC301602F25
:1007C0004AE050E00E94610AC301B2010E94910A0E
:1007D000C3016E2D4AE050E00E94610AC301B201DC
:1007E0000E94910AC3016C2D4AE050E00E94610A08
:1007F000C301B2010E94910AC3016A2D4AE050E090
:100800000E94610AC301B2010E94910AC301682DCE
:100810004AE050E00E94610AC301B2010E94910ABD
:10082000C3016D894AE050E00E94730A84E090E0C1
:100830000E948D09182FF92E6D2D4B2D292D0E9408
:10084000A704F1011483F5820683E782C086A1869E
:1008500082868D8983871486158616861786108A68
:10086000C10160E141E020E00E94FE02CF91DF91F2
:100870001F910F91FF90EF90DF90CF90BF90AF90BE
:100880009F908F907F906F905F904F903F902F90B0
:1008900008958F92AF92CF92DF92EF92FF920F93D3
:1008A0001F938C01F62EE42ED22EFC0113821282AD
:1008B00081EF91E09183808387EA92E062E571E0C5
:1008C0000E94940A0F9285E0EDB7FEB78183C801BC
:1008D0006F2D4E2D2D2D00E0EE24E394A2E0CA2EC4
:1008E000F3E0AF2EE4E08E2E0E949B030F901F9149
:1008F0000F91FF90EF90DF90CF90AF908F90089581
:100900000F931F938C0181EF91E0F8019183808315
:10091000848195810E948A09F80115821482C80198
:100920000E948A091F910F9108950F931F938C01C4
:1009300081EF91E0F80191838083848195810E9409
:100940008A09F801158214821F910F9108950F935F
:100950001F938C01842FF80161834283238360E01D
:100960000E94E706F80110821F910F9108950F93DE
:100970001F93CF93DF93EC01162F042F87EA92E0A9
:100980006CE671E00E94910A87EA92E0612F4AE0EA
:1009900050E00E94610A87EA92E06AE771E00E94F3
:1009A000910A87EA92E0602F4AE050E00E94730AC1
:1009B00087EA92E06CE771E00E94910A87EA92E090
:1009C000688142E050E00E94730A898160E00E94E1
:1009D000E70681E090E002C0880F991F1A95E2F7C0
:1009E0002881002319F48095282301C0282B28830F
:1009F0008B816A8141E028810E943B07898161E007
:100A00000E94E70687EA92E068E871E00E94910A96
:100A100087EA92E0688142E050E00E94730ADF9129
:100A2000CF911F910F910895EF92FF920F931F9313
:100A300007EA12E0C80166E971E00E94940AC80161
:100A40006FE971E00E94940A809112029091130262
:100A500060E041E00E94C702C8016BEA71E00E94B9
:100A6000940AE0901202F09013020E94FC0528EE16
:100A700033E040E050E00E94C60AC701BA01A90174
:100A80002AE030E00E94520AC80167EB71E00E9440
:100A9000940A60ED77E080E090E00E940A061F91E2
:100AA0000F91FF90EF900895EF92FF920F931F9395
:100AB00088E061E00E94A8068CE061E00E94A80640
:100AC0008BE061E00E94A8068DE061E00E94A8062C
:100AD00007EA12E0C80140E855E260E070E00E94D9
:100AE000000885E190E00E948D09F82EE92E68E06B
:100AF0004CE02BE00E944904F0921202E0921302B3
:100B000084E090E00E948D09F82EE92E68E04CE028
:100B10002BE00E94A704F0921402E0921502C80193
:100B200060EC71E00E94940AC80169EC71E00E94D7
:100B3000940A809112029091130260E142E020E059
:100B40000E94FE02C80161ED71E00E94940A80914A
:100B500012029091130269ED71E00E94910A1F91B7
:100B60000F91FF90EF9008951F920F920FB60F9282
:100B700011242F933F938F939F93AF93BF938091B3
:100B80001A0290911B02A0911C02B0911D0230919B
:100B90001E020196A11DB11D232F2D5F2D3720F0C0
:100BA0002D570196A11DB11D20931E0280931A029C
:100BB00090931B02A0931C02B0931D028091160219
:100BC00090911702A0911802B09119020196A11DEF
:100BD000B11D8093160290931702A0931802B09350
:100BE0001902BF91AF919F918F913F912F910F90DB
:100BF0000FBE0F901F9018958FB7F89420911A028E
:100C000030911B0240911C0250911D028FBFB9010F
:100C1000CA0108959B01AC017FB7F8948091160238
:100C200090911702A0911802B091190266B5A89B85
:100C300005C06F3F19F00196A11DB11D7FBFBA2FEE
:100C4000A92F982F8827860F911DA11DB11D62E045
:100C5000880F991FAA1FBB1F6A95D1F7BC012DC031
:100C6000FFB7F8948091160290911702A091180294
:100C7000B0911902E6B5A89B05C0EF3F19F00196A7
:100C8000A11DB11DFFBFBA2FA92F982F88278E0F46
:100C9000911DA11DB11DE2E0880F991FAA1FBB1F66
:100CA000EA95D1F7861B970B885E9340C8F22150D6
:100CB00030404040504068517C4F2115310541057E
:100CC000510571F60895019739F0880F991F880F23
:100CD000991F02970197F1F70895789484B582607F
:100CE00084BD84B5816084BD85B5826085BD85B5D0
:100CF000816085BDEEE6F0E0808181608083E1E87F
:100D0000F0E01082808182608083808181608083B6
:100D1000E0E8F0E0808181608083E1EBF0E08081B9
:100D200084608083E0EBF0E0808181608083EAE78B
:100D3000F0E0808184608083808182608083808114
:100D4000816080838081806880831092C1000895D3
:100D5000CF93DF93482F50E0CA0186569F4FFC0186
:100D600034914A575F4FFA018491882369F190E0EA
:100D7000880F991FFC01E859FF4FA591B491FC0120
:100D8000EE58FF4FC591D491662351F42FB7F894D4
:100D90008C91932F909589238C93888189230BC004
:100DA000623061F42FB7F8948C91932F909589233A
:100DB0008C938881832B88832FBF06C09FB7F894BC
:100DC0008C91832B8C939FBFDF91CF910895482FF7
:100DD00050E0CA0182559F4FFC012491CA018656FA
:100DE0009F4FFC0194914A575F4FFA01349133238E
:100DF00009F440C0222351F1233071F0243028F44B
:100E00002130A1F0223011F514C02630B1F0273086
:100E1000C1F02430D9F404C0809180008F7703C0E2
:100E2000809180008F7D8093800010C084B58F7783
:100E300002C084B58F7D84BD09C08091B0008F77DA
:100E400003C08091B0008F7D8093B000E32FF0E06D
:100E5000EE0FFF1FEE58FF4FA591B4912FB7F894F6
:100E6000662321F48C919095892302C08C91892B63
:100E70008C932FBF0895BF92CF92DF92EF92FF9293
:100E80000F931F93CF93DF93E82EF62EB42EC7E077
:100E9000D0E0022F10E087E0C82ED12CBB2059F4FF
:100EA000B6016C1B7D0BC80102C0959587956A95AC
:100EB000E2F7BC0107C0B8010C2E02C0759567951A
:100EC0000A94E2F761708E2D0E94E7068F2D61E093
:100ED0000E94E7068F2D60E00E94E70621979FEFB2
:100EE000CF3FD907D9F6DF91CF911F910F91FF9096
:100EF000EF90DF90CF90BF90089508951F920F92CA
:100F00000FB60F9211242F933F934F938F939F937C
:100F1000EF93FF934091C60020915F0230916002F1
:100F20002F5F3F4F2F73307080916102909162026A
:100F30002817390759F0E0915F02F0916002E15EF5
:100F4000FD4F40833093600220935F02FF91EF9149
:100F50009F918F914F913F912F910F900FBE0F90C6
:100F60001F901895E091B302F091B402E05CFF4F3E
:100F70008191919120813181821B930B8F739070AD
:100F8000892B11F00E947D0708951F920F920FB6D2
:100F90000F9211242F933F938F939F93EF93FF937F
:100FA0002091A3023091A4028091A5029091A60203
:100FB0002817390731F48091C1008F7D8093C100DB
:100FC00014C0E091A502F091A602ED59FD4F2081D9
:100FD0008091A5029091A60201968F7390709093D4
:100FE000A6028093A5022093C600FF91EF919F91E6
:100FF0008F913F912F910F900FBE0F901F901895DA
:10100000AF92BF92DF92EF92FF920F931F93CF9315
:10101000DF93EC017A018B01DD24403081EE58072B
:1010200080E0680780E0780711F0DD24D39491E038
:10103000A92EB12CEC89FD89DD2069F0C5010E8C4B
:1010400002C0880F991F0A94E2F7808360E079E07C
:101050008DE390E005C0108260E874E88EE190E0D6
:10106000A80197010E94C60A2150304040405040DC
:10107000569547953795279580E12030380720F021
:10108000DD2011F0DD24D6CFE889F9893083EA89A3
:10109000FB892083EE89FF89408121E030E0C9018E
:1010A0000A8C02C0880F991F0A94E2F7482B4083EC
:1010B000EE89FF894081C9010B8C02C0880F991FFE
:1010C0000A94E2F7482B4083EE89FF894081C901E9
:1010D0000C8C02C0880F991F0A94E2F7482B4083BA
:1010E000EE89FF8980810D8C02C0220F331F0A9484
:1010F000E2F7209528232083DF91CF911F910F9154
:10110000FF90EF90DF90BF90AF900895DC011C96A8
:10111000ED91FC911D97E05CFF4F21913191808111
:101120009181281B390B2F733070C9010895DC01A0
:101130001C96ED91FC911D97E05CFF4F2081318161
:10114000E054F040DF01AE5BBF4F8D919C91119751
:101150002817390719F42FEF3FEF07C08D919C91A5
:10116000E80FF91F8081282F30E0C9010895DC01C4
:101170001C96ED91FC911D97E05CFF4F2081318121
:10118000E054F040DF01AE5BBF4F8D919C91119711
:101190002817390719F42FEF3FEF10C08D919C915C
:1011A0001197E80FF91F20818D919C91119701965D
:1011B0008F73907011969C938E9330E0C9010895BF
:1011C000FC0186859785DC01A05CBF4FFC01EE5BCE
:1011D000FF4F2D913C9111978081918128173907FC
:1011E000C1F70895CF93DF93EC01EE85FF85E05CB6
:1011F000FF4F20813181E054F0402F5F3F4F2F732C
:101200003070DF01AE5BBF4F8D919C911197281715
:101210003907D1F3E05CFF4F80819181E054F040C9
:10122000E80FF91F6083EE85FF85E05CFF4F318397
:101230002083EE89FF89208181E090E00D8C02C03F
:10124000880F991F0A94E2F7282B208381E090E011
:10125000DF91CF9108951092AA021092A90288EE10
:1012600093E0A0E0B0E08093AB029093AC02A09337
:10127000AD02B093AE0285E092E09093A802809315
:10128000A7028FE192E09093B4028093B30283E6C9
:1012900092E09093B6028093B50285EC90E0909333
:1012A000B8028093B70284EC90E09093BA028093E6
:1012B000B90280EC90E09093BC028093BB0281EC79
:1012C00090E09093BE028093BD0286EC90E09093F4
:1012D000C0028093BF0284E08093C10283E08093C8
:1012E000C20287E08093C30285E08093C40281E05C
:1012F0008093C5020895CF93DF930E946D060E94EC
:101300005405C2EBD7E00E9414052097E1F30E9438
:10131000B207F9CF0E94360108950E948C0008950B
:10132000CF92DF92EF92FF920F931F93CF93DF93B1
:101330007C016B018A01C0E0D0E00FC0D6016D9145
:101340006D01D701ED91FC910190F081E02DC70175
:101350000995C80FD91F015010400115110571F7EB
:10136000CE01DF91CF911F910F91FF90EF90DF9011
:10137000CF900895EF92FF920F931F938C01DC01A1
:10138000ED91FC910190F081E02D6DE009957C01DB
:10139000D801ED91FC910190F081E02DC8016AE047
:1013A00009959C012E0D3F1DC9011F910F91FF90C2
:1013B000EF900895CF93DF93DB010D900020E9F7C4
:1013C0001197A61BB70BEC01E881F9810280F3812C
:1013D000E02DAD010995DF91CF9108954F925F9275
:1013E0007F928F929F92AF92BF92CF92DF92EF92B5
:1013F000FF920F931F93DF93CF93CDB7DEB7A197E3
:101400000FB6F894DEBF0FBECDBF2C01742ECB01FA
:10141000223008F42AE019A231E2C32ED12CCC0EDE
:10142000DD1E822E9924AA24BB24672D752FA501C9
:1014300094010E94C60A79018A01C801B701A50179
:1014400094010E94A70A472D461B0894C108D108A1
:101450004A3014F4405D01C0495CF6014083E11458
:10146000F1040105110521F07E2C5F2DC801DDCFAF
:10147000C201B6010E94DA09A1960FB6F894DEBF48
:101480000FBECDBFCF91DF911F910F91FF90EF90D5
:10149000DF90CF90BF90AF909F908F907F905F90A4
:1014A0004F900895DC012115310541F4ED91FC9137
:1014B0000190F081E02D642F099508950E94EE09B6
:1014C0000895EF92FF920F931F939A01E62EFF2447
:1014D00000E010E0B801A7010E94520A1F910F918D
:1014E000FF90EF900895CF92DF92EF92FF920F93CB
:1014F0001F936C01E62E9A01FF2400E010E0B80172
:10150000A7010E94520A8C01C6010E94BA09080F65
:10151000191FC8011F910F91FF90EF90DF90CF909E
:1015200008950E94DA090895EF92FF920F931F9396
:101530007C010E94DA098C01C7010E94BA09080FD8
:10154000191FC8011F910F91FF90EF900895629F9E
:10155000D001739FF001829FE00DF11D649FE00DAB
:10156000F11D929FF00D839FF00D749FF00D659F0C
:10157000F00D9927729FB00DE11DF91F639FB00D0B
:10158000E11DF91FBD01CF0111240895A1E21A2E1A
:10159000AA1BBB1BFD010DC0AA1FBB1FEE1FFF1F17
:1015A000A217B307E407F50720F0A21BB30BE40B67
:1015B000F50B661F771F881F991F1A9469F76095AE
:1015C0007095809590959B01AC01BD01CF01089568
:1015D000EE0FFF1F0590F491E02D0994F894FFCFD2
:1015E00070756C7365456E61626C65200077726919
:1015F0007465386269747320007772697465346247
:10160000697473200073656E64200020007772692E
:1016100074652000636F6D6D616E642000626567A4
:10162000696E2000757072696E742000696E69744D
:101630002000636F6E7374727563746F7231006330
:101640006F6E7374727563746F723000646967696A
:1016500074616C5772697465200020002A206F75D0
:1016600074707574202A20002A2A206F7574707592
:1016700074202A2A20003D3D3D3D3D3D3D3D002D4D
:101680002D534554435552534F52002D2D5052491E
:101690004E5420534543003E3E3E3E3E3E3E3E00BD
:1016A0003C3C3C3C3C3C3C3C002D2D424547494E9B
:1016B000002D2D5052494E540068656C6C6F2C20E3
:1016C000776F726C6421002000CA020000000000E5
:1016D0000079029009950480040000400014005431
:1016E0000000000000F20890098608B7089708E09B
:0216F0000800F0
:00000001FF
