:100000000C94B6010C94DE010C94DE010C94DE011C
:100010000C94DE010C94DE010C94DE010C94DE01E4
:100020000C94DE010C94DE010C94DE010C94DE01D4
:100030000C94DE010C94DE010C94DE010C94DE01C4
:100040000C949B0A0C94DE010C94570C0C949E0C9F
:100050000C94DE010C94DE010C94DE010C94DE01A4
:100060000C94DE010C94DE01A2000000ECA500005F
:10007000005CB0000000DFB5000000E4B700000045
:10008000A5E4000000E1F1000000EEF6000000EF42
:10009000F7000000FDFC000000F591030000419214
:1000A000030000429503000045960300005A9703A1
:1000B00000004899030000499A0300004B9C03008C
:1000C000004D9D0300004E9F0300004FA103000060
:1000D00050A3030000F6A403000054A50300005938
:1000E000A703000058A9030000F4B1030000E0B228
:1000F000030000E2B5030000E3B8030000F2BC0314
:100100000000E4BF0300006FC0030000F7C103005C
:1001100000E6C3030000E5010400004510040000F0
:10012000411204000042140400004415040000457C
:1001300017040000331A0400004B1C0400004D1D7E
:10014000040000481E0400004F2004000050210459
:100150000000432204000054230400005925040039
:1001600000582C04000062300400006135040000D7
:10017000653E0400006F3F0400006E400400007004
:1001800041040000634304000079450400007851F5
:1001900004000065102000002E112000002E122007
:1001A00000002E132000002E142000002E15200029
:1001B000002E26210000F4902100007F92210000F3
:1001C0007911220000F6122200002E1A220000E807
:1001D0001E220000F3C5220000A501300000A40289
:1001E000300000A103300000220C300000A20D30CE
:1001F0000000A3A1300000A7A2300000B1A330008E
:1002000000A8A4300000B2A5300000A9A63000006C
:10021000B3A7300000AAA8300000B4A9300000AB9A
:10022000AA300000B5AB300000B6AD300000B7AF6B
:10023000300000B8B1300000B9B3300000BAB530BA
:100240000000BBB7300000BCB9300000BDBB3000BF
:1002500000BEBD300000BFBF300000C0C130000094
:10026000C1C3300000AFC4300000C2C6300000C3BC
:10027000C8300000C4CA300000C5CB300000C6CC76
:10028000300000C7CD300000C8CE300000C9CF30EC
:100290000000CAD2300000CBD5300000CCD83000EE
:1002A00000CDDB300000CEDE300000CFDF300000BC
:1002B000D0E0300000D1E1300000D2E2300000D3C5
:1002C000E3300000ACE4300000D4E5300000ADE6DF
:1002D000300000D5E7300000AEE8300000D6E9304D
:1002E0000000D7EA300000D8EB300000D9EC300035
:1002F00000DAED300000DBEF300000DCF23000000F
:10030000A6F3300000DDFB300000A5FC300000B09B
:1003100000000000240027002A0000000000250043
:1003200028002B0000000000230026002900040400
:10033000040404040404020202020202030303038D
:100340000303010204081020408001020408102069
:100350000102040810200000000700020100000351
:1003600004060000000000000000040E11241FBE5F
:10037000CFEFD8E0DEBFCDBF11E0A0E0B1E0E2E911
:10038000FFE102C005900D92AA3BB107D9F712E038
:10039000AAEBB1E001C01D92A237B107E1F713E06B
:1003A000CCE6D3E004C02297FE010E94C30FCA36F8
:1003B000D107C9F70E94540E0C94C70F0C9400008B
:1003C000CF93DF93BC018230910510F462E070E0BE
:1003D000A0917002B0917102ED01E0E0F0E040E028
:1003E00050E021C0888199818617970769F48A8136
:1003F0009B81309719F09383828304C0909371029C
:1004000080937002FE0134C06817790738F44115F3
:10041000510519F08417950708F4AC01FE018A8193
:100420009B819C01E9012097E9F641155105A9F14D
:10043000CA01861B970B049708F4BA01E0E0F0E0CC
:100440002AC08D919C91119784179507F9F4641730
:10045000750781F412968D919C911397309719F03E
:100460009383828304C09093710280937002FD0194
:1004700032964CC0CA01861B970BFD01E80FF91F8D
:100480006193719302978D939C9340C0FD0182818B
:1004900093819C01D9011097A1F680916E029091F1
:1004A0006F02892B41F480918A0190918B01909386
:1004B0006F0280936E0240918C0150918D01411525
:1004C000510541F44DB75EB7809188019091890143
:1004D000481B590B20916E0230916F02CA01821B9A
:1004E000930B8617970780F0AB014E5F5F4F841721
:1004F000950750F0420F531F50936F0240936E02C6
:10050000F9016193719302C0E0E0F0E0CF01DF9167
:10051000CF910895CF93DF93009709F450C0EC0179
:1005200022971B821A82A0917002B09171021097DB
:1005300009F140E050E0AC17BD0708F1BB83AA8386
:10054000FE0121913191E20FF31FAE17BF0779F43D
:100550008D919C911197280F391F2E5F3F4F398342
:10056000288312968D919C9113979B838A834115C2
:10057000510571F4D0937102C093700220C012969D
:100580008D919C911397AD01009711F0DC01D3CFB1
:10059000FA01D383C28321913191E20FF31FCE1769
:1005A000DF0769F488819981280F391F2E5F3F4F3B
:1005B000FA01318320838A819B8193838283DF9137
:1005C000CF9108950F931F93CF93DF93182F092F87
:1005D000E82FF92FDF010D900020E9F7CD018E1BE8
:1005E0009F0B0E94E001EC01009721F0612F702F1A
:1005F0000E940003CE01DF91CF911F910F910895CA
:10060000FB01DC0101900D920020E1F708950F93AA
:100610001F938C018FE492E060E071E00E946D0F07
:10062000F80185899689608D40E00E94BC0681E0D2
:1006300090E00E943C0BF80185899689608D41E02D
:100640000E94BC0681E090E00E943C0BF801858985
:100650009689608D40E00E94BC0684E690E00E948E
:100660003C0B1F910F910895CF92DF92EF92FF9272
:100670000F931F93CF93DF936C01162F8FE492E0BB
:100680006DE071E00E946A0F8FE492E0612F42E01A
:1006900050E00E944C0F7601C0E0D0E0012F10E046
:1006A000A8010C2E02C0559547950A94E2F74170B7
:1006B000F60185899689F701618D0E94BC06219615
:1006C0000894E11CF11CC830D10551F7C6010E9405
:1006D0000703DF91CF911F910F91FF90EF90DF9073
:1006E000CF900895CF92DF92EF92FF920F931F93D6
:1006F000CF93DF936C01162F8FE492E069E171E0F4
:100700000E946A0F8FE492E0612F42E050E00E9465
:100710004C0F7601C0E0D0E0012F10E0A8010C2EB4
:1007200002C0559547950A94E2F74170F601858914
:100730009689F701618D0E94BC0621960894E11C00
:10074000F11CC430D10551F768EE73E080E090E011
:100750000E94E30AC6010E940703DF91CF911F9117
:100760000F91FF90EF90DF90CF9008950F931F931C
:10077000CF93DF93EC01062F142F8FE492E065E214
:1007800071E00E946A0F8FE492E0602F40E150E038
:100790000E943A0F8FE492E06BE271E00E946A0FD0
:1007A0008FE492E0612F40E150E00E944C0F8D8970
:1007B0009E896F89412F0E94BC0689A184FF05C0D4
:1007C000CE01602F0E9434030EC0602F70E084E0E1
:1007D000759567958A95E1F7CE010E947203CE0167
:1007E000602F0E947203DF91CF911F910F910895A6
:1007F000DF92EF92FF920F931F938C01D62E9FE40E
:10080000E92E92E0F92EC7016DE271E00E946A0FB5
:10081000C7016D2D40E150E00E944C0FC8016D2DC5
:1008200041E00E94B60381E090E01F910F91FF909C
:10083000EF90DF900895DF92EF92FF920F931F9356
:100840008C01D62E2FE4E22E22E0F22EC70164E3C3
:1008500071E00E946A0FC7016D2D40E150E00E94D7
:100860004C0FC8016D2D40E00E94B6031F910F91FF
:10087000FF90EF90DF9008952F923F924F925F92FA
:100880006F927F928F929F92AF92BF92CF92DF92A0
:10089000EF92FF920F931F93DF93CF93CDB7DEB705
:1008A00028970FB6F894DEBF0FBECDBF4C017B0179
:1008B0004DB65EB68FE492E06DE371E00E946A0F80
:1008C0008FE492E0B7010E946D0F8E010F5F1F4F02
:1008D000C801B7010E944A0889819A812DB73EB7A5
:1008E000281B390B0FB6F8943EBF0FBE2DBFEDB6D7
:1008F000FEB60894E11CF11C3E2C2F2C6701AA24A3
:10090000BB24380141C0C3010E94540716161706C4
:10091000180619060CF03EC06E3771058105910569
:100920001CF4D6016C932AC02FEFF601208300E05F
:1009300010E00BC0FD01E459FF4FE491D601EC93A8
:100940000F5F1F4F08381105C9F0D801AA0FBB1F50
:10095000AA0FBB1FA00FB11FFD01E859FF4F259142
:10096000359145915491621773078407950730F0CC
:10097000261737074807590719F7DCCF0894A11C39
:10098000B11C0894C11CD11C89819A81A816B90692
:1009900008F4B9CFEA0CFB1CF7011082C401632DE7
:1009A000722D0E946A0F182F092FCE0101960E9406
:1009B0004408812F902F0FB6F8945EBE0FBE4DBE37
:1009C00028960FB6F894DEBF0FBECDBFCF91DF9152
:1009D0001F910F91FF90EF90DF90CF90BF90AF905D
:1009E0009F908F907F906F905F904F903F902F904F
:1009F0000895FF920F931F93CF93DF93EC01162F6F
:100A0000042FF22E8FE492E065E471E00E946A0FF9
:100A10008FE492E0612F4AE050E00E943A0F8FE4A9
:100A200092E06BE271E00E946A0F8FE492E0602F27
:100A30004AE050E00E943A0F8FE492E06BE271E0EE
:100A40000E946A0F8FE492E06F2D4AE050E00E940E
:100A50004C0F023018F089A1886089A30CA31DA255
:100A6000FF2029F0013019F489A1846089A380E571
:100A700093EC0E943C0B8D899E896F8940E00E9417
:100A8000BC068D899E89688D40E00E94BC0669A1E4
:100A900064FD1DC0CE0163E00E94720384E991E110
:100AA0000E943C0BCE0163E00E94720384E991E155
:100AB0000E943C0BCE0163E00E94720386E990E045
:100AC0000E943C0BCE0162E00E94720316C060627D
:100AD000CE010E941B0484E991E10E943C0B69A1B4
:100AE0006062CE010E941B0486E990E00E943C0BEC
:100AF00069A16062CE010E941B0469A16062CE01FF
:100B00000E941B0484E08AA3CE010E949709CE01B3
:100B10000E948F0982E08BA3CE0166E00E941B0435
:100B2000DF91CF911F910F91FF9008952F923F92E7
:100B30004F925F926F927F928F929F92AF92BF92ED
:100B4000CF92DF92EF92FF920F931F93DF93CF9399
:100B5000CDB7DEB71C01D62EB42E922E5FE4652EE3
:100B600052E0752EC3016CE471E00E946A0FC3016C
:100B70006D2D4AE050E00E943A0F4BE2442E41E0D6
:100B8000542EC301B2010E946A0FC3016B2D4AE0CB
:100B900050E00E943A0FC301B2010E946A0FC301E4
:100BA000692D4AE050E00E943A0FC301B2010E9451
:100BB0006A0FC301602F4AE050E00E943A0FC30160
:100BC000B2010E946A0FC3016E2D4AE050E00E94FC
:100BD0003A0FC301B2010E946A0FC3016C2D4AE0B3
:100BE00050E00E943A0FC301B2010E946A0FC30194
:100BF0006A2D4AE050E00E943A0FC301B2010E9400
:100C00006A0FC301682D4AE050E00E943A0FC30109
:100C1000B2010E946A0FC3016D894AE050E00E9450
:100C20004C0F84E090E00E94660E182FF92E6D2D77
:100C30004B2D292D0E94AC06F101158BF68A078BEE
:100C4000E08EC18EA28E838E8D89848F158E168E36
:100C5000178E10A211A2C10160E141E020E00E94C4
:100C6000F904CF91DF911F910F91FF90EF90DF90EA
:100C7000CF90BF90AF909F908F907F906F905F903C
:100C80004F903F902F9008950F931F938C0182E90E
:100C900091E0F80191838083858996890E94630E93
:100CA000F801168A158AC8010E94630E1F910F91E0
:100CB00008950F931F938C0182E991E0F8019183CD
:100CC0008083858996890E94630EF801168A158AA9
:100CD0001F910F9108958F92AF92BF92CF92DF92A2
:100CE000EF92FF920F931F935C01162FF42ED22EDA
:100CF0006FE041E022E003E0B4E0EB2EA5E0CA2E75
:100D00000E94620A82E991E0F501918380838FE479
:100D100092E062E571E00E946D0F0F9285E0EDB701
:100D2000FEB78183C501612F4F2D2D2D0FE0EE24DD
:100D3000E394F2E0CF2EE3E0AE2E74E0872E0E9423
:100D400096050F901F910F91FF90EF90DF90CF903D
:100D5000BF90AF908F9008950F931F938C01842FB5
:100D6000F80161834283238360E00E94C00BF80195
:100D700010821F910F9108950F931F93CF93DF93CC
:100D8000EC01162F042F8FE492E06CE671E00E94D4
:100D90006A0F8FE492E0612F4AE050E00E943A0F20
:100DA0008FE492E06AE771E00E946A0F8FE492E0BC
:100DB000602F4AE050E00E944C0F898160E00E9461
:100DC000C00B81E090E002C0880F991F1A95E2F7EE
:100DD0002881002319F48095282301C0282B28831B
:100DE0008B816A8141E028810E94140C898161E035
:100DF0000E94C00BDF91CF911F910F9108958091B8
:100E0000BA019091BB0160E142E020E00E94F90448
:100E10008091BA019091BB0160E041E00E946009BD
:100E20008091BA019091BB016CE771E00E943C0493
:100E300008950F931F9388E061E00E94810B8CE07E
:100E400061E00E94810B8BE061E00E94810B8DE0EC
:100E500061E00E94810B8FE492E040E855E260E09F
:100E600070E00E94D90C86E290E00E94660E182F76
:100E7000092F68E04CE02BE00E946B061093BA014A
:100E80000093BB0184E090E00E94660E182F092FAA
:100E900068E04CE02BE00E94AC061093BC0100938C
:100EA000BD011F910F910895AF92BF92CF92DF9233
:100EB000EF92FF920F931F93CF93DF93EC01EC819E
:100EC000FD814E815F81E40FF51F908197FD09C080
:100ED000E92EFF24E7FCF0940F2D1F2D4F5F5F4F8D
:100EE0002DC0292F332727FD309525FD2AC081816C
:100EF000E82EFF24E7FCF0940F2D1F2D3FE3A32ED7
:100F0000B12CC12CD12CEA20FB200C211D21892FD2
:100F1000992787FD9095A92FB92F8F719070A07098
:100F2000B07026E0880F991FAA1FBB1F2A95D1F722
:100F3000E82AF92A0A2B1B2B4E5F5F4F5F834E83F3
:100F40008DC024FD3BC08281E82EFF24E7FCF09495
:100F50000F2D1F2DAFE3AA2EB12CC12CD12CEA20CE
:100F6000FB200C211D21892F992787FD9095A92F02
:100F7000B92F7CE0880F991FAA1FBB1F7A95D1F764
:100F8000A070B070E82AF92A0A2B1B2B81819927BF
:100F900087FD9095A92FB92F8F739070A070B070B6
:100FA00066E0880F991FAA1FBB1F6A95D1F7E82A30
:100FB000F92A0A2B1B2B4D5F5F4FC0CF23FD4EC07C
:100FC0008381E82EFF24E7FCF0940F2D1F2D2FE3E3
:100FD00030E040E050E0E222F32204231523892F81
:100FE000992787FD9095A92FB92F87709070A070D1
:100FF000B07042E1880F991FAA1FBB1F4A95D1F715
:10100000E82AF92A0A2B1B2B8181992787FD9095C5
:10101000A92FB92F8F739070A070B0703CE0880F2B
:10102000991FAA1FBB1F3A95D1F7E82AF92A0A2B64
:101030001B2B8281992787FD9095A92FB92F8F733C
:101040009070A070B07026E0880F991FAA1FBB1F78
:101050002A95D1F7E82AF92A0A2B1B2B2E813F81EA
:101060008A819B812817390710F01F821E82B701E1
:10107000C801DF91CF911F910F91FF90EF90DF900A
:10108000CF90BF90AF900895FC01848195810E941C
:101090008A020895CF93DF93EC01CB01FB0101900D
:1010A0000020E9F73197E61BF70BFB83EA830E94E8
:1010B000E2028C839D83198218821F821E8234C0B3
:1010C000EC81FD81E20FF31FE081E7FD06C088811E
:1010D000998101969983888322C0FF27E7FDF095C7
:1010E000E5FD08C0888199810196998388832F5FE7
:1010F0003F4F13C0E4FD08C0888199810196998310
:1011000088832E5F3F4F09C0E3FD09C08881998124
:101110000196998388832D5F3F4F3F832E838E8175
:101120009F8101969F838E832E813F818A819B813F
:101130002817390728F21F821E82DF91CF91089568
:101140000F931F938C01FC01868160E00E94C00B0D
:1011500081E090E00E943C0BF801868161E00E94F2
:10116000C00B81E090E00E943C0BF801868160E0BA
:101170000E94C00B84E690E00E943C0B1F910F91EF
:101180000895CF92DF92EF92FF920F931F93CF9328
:10119000DF93D82EC92E282F392FC9018C01C0E02A
:1011A000D0E0E62EFF24F801878161E00E94810BE8
:1011B000B7010C2E02C0759567950A94E2F761702D
:1011C000F80187810E94C00B21960F5F1F4FC83026
:1011D000D10549F78D2D9C2D0E94A008DF91CF915C
:1011E0001F910F91FF90EF90DF90CF900895CF92D5
:1011F000DF92EF92FF920F931F93CF93DF93D82E3E
:10120000C92E282F392FC9018C01C0E0D0E0E62E6D
:10121000FF24F801878161E00E94810BB7010C2E49
:1012200002C0759567950A94E2F76170F8018781AD
:101230000E94C00B21960F5F1F4FC430D10549F7A4
:101240008D2D9C2D0E94A008DF91CF911F910F91B1
:10125000FF90EF90DF90CF9008951F93CF93DF938F
:10126000EC01162F8C81642F0E94C00B8D818F3F63
:1012700019F060E00E94C00B8F8584FF05C0CE018D
:10128000612F0E94C1080EC0612F70E084E0759547
:1012900067958A95E1F7CE010E94F708CE01612F8C
:1012A0000E94F708DF91CF911F91089541E00E94BD
:1012B0002D0981E090E0089540E00E942D090895F5
:1012C000DF93CF93CDB7DEB728970FB6F894DEBF84
:1012D0000FBECDBF9C01FE013196A2EAB1E088E0CD
:1012E0000D9001928150E1F7F9018389481710F0C0
:1012F000482F4150E42FF0E0EE0FFF1FEC0FFD1FD1
:101300008181680F6068C9010E945C0928960FB648
:10131000F894DEBF0FBECDBFCF91DF91089561E09D
:101320000E945C0980ED97E00E943C0B08950F93AA
:101330001F938C018FE492E062E871E00E946D0FD0
:10134000F8016089862F8460808B6C60C8010E94E0
:101350005C091F910F910895CF93DF93EC01423008
:1013600018F08F8588608F874B8B1C8A222329F089
:10137000413019F48F8584608F8780E593EC0E945B
:101380003C0B8C8160E00E94C00B8E8160E00E946B
:10139000C00B8D818F3F19F060E00E94C00B6F85FC
:1013A00064FD1DC0CE0163E00E94F70884E991E16D
:1013B0000E943C0BCE0163E00E94F70884E991E1B2
:1013C0000E943C0BCE0163E00E94F70886E990E0A2
:1013D0000E943C0BCE0162E00E94F70816C06062DA
:1013E000CE010E945C0984E991E10E943C0B6F856B
:1013F0006062CE010E945C0986E990E00E943C0B8D
:101400006F856062CE010E945C096F856062CE01CB
:101410000E945C0984E0888BCE010E949709CE016E
:101420000E948F0982E0898BCE0166E00E945C09F0
:10143000DF91CF9108956F927F928F92AF92CF926A
:10144000EF920F931F93DF93CF93CDB7DEB73C019D
:10145000162F842FF301448325830683E782C086F9
:10146000A18682869D8593879E8594879F85958793
:101470009889968761E00E94810BF30185818F3FF7
:1014800019F061E00E94810BF301868161E00E9406
:10149000810B112319F0F301178603C080E1F301DA
:1014A0008787C30160E141E020E00E94AC09CF9151
:1014B000DF911F910F91EF90CF90AF908F907F9021
:1014C0006F9008958F92AF92CF92EF920F931F93E8
:1014D000CF93DF93DC01362F542F722F102FAE2CB9
:1014E0008C2C13961C921E9212978EE991E0119605
:1014F0009C938E9300D000D0EDB7FEB73196CDB758
:10150000DEB71982118212821382CD0161E0432F6E
:101510002FEF052FE72EC12E0E941B0A0F900F9070
:101520000F900F90DF91CF911F910F91EF90CF907F
:10153000AF908F9008951F920F920FB60F921124C3
:101540002F933F938F939F93AF93BF938091C2014B
:101550009091C301A091C401B091C5013091C60121
:101560000196A11DB11D232F2D5F2D3720F02D5782
:101570000196A11DB11D2093C6018093C2019093D5
:10158000C301A093C401B093C5018091BE019091A5
:10159000BF01A091C001B091C1010196A11DB11D73
:1015A0008093BE019093BF01A093C001B093C1018D
:1015B000BF91AF919F918F913F912F910F900FBE4F
:1015C0000F901F9018959B01AC017FB7F894809104
:1015D000BE019091BF01A091C001B091C10166B55B
:1015E000A89B05C06F3F19F00196A11DB11D7FBFDB
:1015F000BA2FA92F982F8827860F911DA11DB11DE5
:1016000062E0880F991FAA1FBB1F6A95D1F7BC0122
:101610002DC0FFB7F8948091BE019091BF01A091B9
:10162000C001B091C101E6B5A89B05C0EF3F19F01C
:101630000196A11DB11DFFBFBA2FA92F982F882792
:101640008E0F911DA11DB11DE2E0880F991FAA1FE9
:10165000BB1FEA95D1F7861B970B885E9340C8F2B3
:10166000215030404040504068517C4F2115310599
:101670004105510571F60895019739F0880F991FBA
:10168000880F991F02970197F1F70895789484B510
:10169000826084BD84B5816084BD85B5826085BD6E
:1016A00085B5816085BDEEE6F0E080818160808354
:1016B000E1E8F0E010828081826080838081816037
:1016C0008083E0E8F0E0808181608083E1EBF0E0FE
:1016D000808184608083E0EBF0E0808181608083A2
:1016E000EAE7F0E08081846080838081826080838B
:1016F0008081816080838081806880831092C100B6
:101700000895CF93DF93482F50E0CA018E5B9C4F22
:10171000FC013491425D5C4FFA018491882369F1A8
:1017200090E0880F991FFC01E05FFC4FA591B491F8
:10173000FC01E65EFC4FC591D491662351F42FB7AE
:10174000F8948C91932F909589238C938881892389
:101750000BC0623061F42FB7F8948C91932F909561
:1017600089238C938881832B88832FBF06C09FB7E2
:10177000F8948C91832B8C939FBFDF91CF91089528
:10178000482F50E0CA018A5A9C4FFC012491CA019B
:101790008E5B9C4FFC019491425D5C4FFA01349149
:1017A000332309F440C0222351F1233071F0243057
:1017B00028F42130A1F0223011F514C02630B1F008
:1017C0002730C1F02430D9F404C0809180008F7795
:1017D00003C0809180008F7D8093800010C084B50D
:1017E0008F7702C084B58F7D84BD09C08091B00021
:1017F0008F7703C08091B0008F7D8093B000E32F7E
:10180000F0E0EE0FFF1FE65EFC4FA591B4912FB7FD
:10181000F894662321F48C919095892302C08C91D1
:10182000892B8C932FBF0895BF92CF92DF92EF92B6
:10183000FF920F931F93CF93DF93E82EF62EB42ED3
:10184000C7E0D0E0022F10E087E0C82ED12CBB20EB
:1018500059F4B6016C1B7D0BC80102C095958795A4
:101860006A95E2F7BC0107C0B8010C2E02C075955D
:1018700067950A94E2F761708E2D0E94C00B8F2D40
:1018800061E00E94C00B8F2D60E00E94C00B219789
:101890009FEFCF3FD907D9F6DF91CF911F910F91DD
:1018A000FF90EF90DF90CF90BF90089508951F9222
:1018B0000F920FB60F9211242F933F934F938F9354
:1018C0009F93EF93FF934091C600209107023091C0
:1018D00008022F5F3F4F2F73307080910902909163
:1018E0000A022817390759F0E0910702F09108021F
:1018F000E953FE4F40833093080220930702FF9183
:10190000EF919F918F914F913F912F910F900FBE2B
:101910000F901F901895E0915B02F0915C02E05CE3
:10192000FF4F8191919120813181821B930B8F73A5
:101930009070892B11F00E94560C08951F920F92FF
:101940000FB60F9211242F933F938F939F93EF9392
:10195000FF9320914B0230914C0280914D02909167
:101960004E022817390731F48091C1008F7D809392
:10197000C10014C0E0914D02F0914E02E55FFD4FB1
:10198000208180914D0290914E0201968F7390704C
:1019900090934E0280934D022093C600FF91EF91E9
:1019A0009F918F913F912F910F900FBE0F901F909D
:1019B0001895AF92BF92DF92EF92FF920F931F9311
:1019C000CF93DF93EC017A018B01DD24403081EE6F
:1019D000580780E0680780E0780711F0DD24D39491
:1019E00091E0A92EB12CEC89FD89DD2069F0C501BB
:1019F0000E8C02C0880F991F0A94E2F7808360E082
:101A000079E08DE390E005C0108260E874E88EE133
:101A100090E0A80197010E949F0F21503040404064
:101A20005040569547953795279580E120303807E7
:101A300020F0DD2011F0DD24D6CFE889F98930834C
:101A4000EA89FB892083EE89FF89408121E030E02B
:101A5000C9010A8C02C0880F991F0A94E2F7482B2B
:101A60004083EE89FF894081C9010B8C02C0880F39
:101A7000991F0A94E2F7482B4083EE89FF89408141
:101A8000C9010C8C02C0880F991F0A94E2F7482BF9
:101A90004083EE89FF8980810D8C02C0220F331FA5
:101AA0000A94E2F7209528232083DF91CF911F919C
:101AB0000F91FF90EF90DF90BF90AF900895DC0101
:101AC0001C96ED91FC911D97E05CFF4F21913191A7
:101AD00080819181281B390B2F733070C9010895C3
:101AE000DC011C96ED91FC911D97E05CFF4F20817D
:101AF0003181E054F040DF01AE5BBF4F8D919C918E
:101B000011972817390719F42FEF3FEF07C08D9170
:101B10009C91E80FF91F8081282F30E0C9010895BA
:101B2000DC011C96ED91FC911D97E05CFF4F20813C
:101B30003181E054F040DF01AE5BBF4F8D919C914D
:101B400011972817390719F42FEF3FEF10C08D9127
:101B50009C911197E80FF91F20818D919C9111970D
:101B600001968F73907011969C938E9330E0C9010B
:101B70000895FC0186859785DC01A05CBF4FFC01C0
:101B8000EE5BFF4F2D913C91119780819181281739
:101B90003907C1F70895CF93DF93EC01EE85FF85F8
:101BA000E05CFF4F20813181E054F0402F5F3F4FD8
:101BB0002F733070DF01AE5BBF4F8D919C911197F9
:101BC00028173907D1F3E05CFF4F80819181E05401
:101BD000F040E80FF91F6083EE85FF85E05CFF4F62
:101BE00031832083EE89FF89208181E090E00D8C94
:101BF00002C0880F991F0A94E2F7282B208381E006
:101C000090E0DF91CF91089510925202109251020C
:101C100088EE93E0A0E0B0E08093530290935402EA
:101C2000A0935502B09356028EEA91E09093500231
:101C300080934F0287EC91E090935C0280935B026B
:101C40008BE092E090935E0280935D0285EC90E0E1
:101C50009093600280935F0284EC90E09093620224
:101C60008093610280EC90E0909364028093630221
:101C700081EC90E0909366028093650286EC90E0A0
:101C8000909368028093670284E08093690283E006
:101C900080936A0287E080936B0285E080936C02F8
:101CA00081E080936D020895CF93DF930E94460BED
:101CB0000E941907CBE8DCE00E94FF062097E1F3C1
:101CC0000E948B0CF9CF0E948A0208950E94E001C5
:101CD0000895CF92DF92EF92FF920F931F93CF93CD
:101CE000DF937C016B018A01C0E0D0E00FC0D60118
:101CF0006D916D01D701ED91FC910190F081E02D86
:101D0000C7010995C80FD91F0150104001151105D1
:101D100071F7CE01DF91CF911F910F91FF90EF905E
:101D2000DF90CF900895EF92FF920F931F938C0155
:101D3000DC01ED91FC910190F081E02D6DE00995C1
:101D40007C01D801ED91FC910190F081E02DC8015A
:101D50006AE009959C012E0D3F1DC9011F910F914D
:101D6000FF90EF900895CF93DF93DB010D9000205B
:101D7000E9F71197A61BB70BEC01E881F981028006
:101D8000F381E02DAD010995DF91CF9108954F9238
:101D90005F927F928F929F92AF92BF92CF92DF928B
:101DA000EF92FF920F931F93DF93CF93CDB7DEB7E0
:101DB000A1970FB6F894DEBF0FBECDBF2C01742ED5
:101DC000CB01223008F42AE019A231E2C32ED12C33
:101DD000CC0EDD1E822E9924AA24BB24672D752FDC
:101DE000A50194010E949F0F79018A01C801B701E2
:101DF000A50194010E94800F472D461B0894C1083D
:101E0000D1084A3014F4405D01C0495CF6014083BA
:101E1000E114F1040105110521F07E2C5F2DC801AC
:101E2000DDCFC201B6010E94B30EA1960FB6F894A1
:101E3000DEBF0FBECDBFCF91DF911F910F91FF90FD
:101E4000EF90DF90CF90BF90AF909F908F907F905A
:101E50005F904F900895DC012115310541F4ED911B
:101E6000FC910190F081E02D642F099508950E9466
:101E7000C70E0895EF92FF920F931F939A01E62EDB
:101E8000FF2400E010E0B801A7010E942B0F1F9172
:101E90000F91FF90EF900895CF92DF92EF92FF9213
:101EA0000F931F936C01E62E9A01FF2400E010E0CF
:101EB000B801A7010E942B0F8C01C6010E94930E4E
:101EC000080F191FC8011F910F91FF90EF90DF902D
:101ED000CF9008950E94B30E0895EF92FF920F9352
:101EE0001F937C010E94B30E8C01C7010E94930EC8
:101EF000080F191FC8011F910F91FF90EF900895CF
:101F0000629FD001739FF001829FE00DF11D649FDD
:101F1000E00DF11D929FF00D839FF00D749FF00D69
:101F2000659FF00D9927729FB00DE11DF91F639F0A
:101F3000B00DE11DF91FBD01CF0111240895A1E2EB
:101F40001A2EAA1BBB1BFD010DC0AA1FBB1FEE1F33
:101F5000FF1FA217B307E407F50720F0A21BB30B7E
:101F6000E40BF50B661F771F881F991F1A9469F7FA
:101F700060957095809590959B01AC01BD01CF0156
:101F80000895EE0FFF1F0590F491E02D0994F89449
:021F9000FFCF81
:101F920070756C7365456E61626C6520007772695D
:101FA200746538626974732000777269746534628B
:101FB200697473200073656E642000200077726973
:101FC20074652000636F6D6D616E642000757072C0
:101FD200696E742000626567696E2000696E6974BB
:101FE2002000636F6E7374727563746F7231006375
:101FF2006F6E7374727563746F72300064696769AF
:1020020074616C5772697465200020003132333478
:1020120035002D2D2D2D2D00200072020000000014
:102022000000F803690E5906440600000000560934
:10203200690E000040001400540000000000CB0DA7
:0A204200690E5F0D900D700DB90DD1
:00000001FF
