:100000000C94B7010C94DF010C94DF010C94DF0118
:100010000C94DF010C94DF010C94DF010C94DF01E0
:100020000C94DF010C94DF010C94DF010C94DF01D0
:100030000C94DF010C94DF010C94DF010C94DF01C0
:100040000C94EE080C94DF010C94DF010C94DF019A
:100050000C94DF010C94DF010C94DF010C94DF01A0
:100060000C94DF010C94DF01A2000000ECA500005D
:10007000005CB0000000DFB5000000E4B700000045
:10008000A5E4000000E1F1000000EEF6000000EF42
:10009000F7000000FDFC000000F591030000419214
:1000A000030000429503000045960300005A9703A1
:1000B00000004899030000499A0300004B9C03008C
:1000C000004D9D0300004E9F0300004FA103000060
:1000D00050A3030000F6A403000054A50300005938
:1000E000A703000058A9030000F4B1030000E0B228
:1000F000030000E2B5030000E3B8030000F2BC0314
:100100000000E4BF0300006FC0030000F7C103005C
:1001100000E6C3030000E5010400004510040000F0
:10012000411204000042140400004415040000457C
:1001300017040000331A0400004B1C0400004D1D7E
:10014000040000481E0400004F2004000050210459
:100150000000432204000054230400005925040039
:1001600000582C04000062300400006135040000D7
:10017000653E0400006F3F0400006E400400007004
:1001800041040000634304000079450400007851F5
:1001900004000065102000002E112000002E122007
:1001A00000002E132000002E142000002E15200029
:1001B000002E26210000F4902100007F92210000F3
:1001C0007911220000F6122200002E1A220000E807
:1001D0001E220000F3C5220000A501300000A40289
:1001E000300000A103300000220C300000A20D30CE
:1001F0000000A3A1300000A7A2300000B1A330008E
:1002000000A8A4300000B2A5300000A9A63000006C
:10021000B3A7300000AAA8300000B4A9300000AB9A
:10022000AA300000B5AB300000B6AD300000B7AF6B
:10023000300000B8B1300000B9B3300000BAB530BA
:100240000000BBB7300000BCB9300000BDBB3000BF
:1002500000BEBD300000BFBF300000C0C130000094
:10026000C1C3300000AFC4300000C2C6300000C3BC
:10027000C8300000C4CA300000C5CB300000C6CC76
:10028000300000C7CD300000C8CE300000C9CF30EC
:100290000000CAD2300000CBD5300000CCD83000EE
:1002A00000CDDB300000CEDE300000CFDF300000BC
:1002B000D0E0300000D1E1300000D2E2300000D3C5
:1002C000E3300000ACE4300000D4E5300000ADE6DF
:1002D000300000D5E7300000AEE8300000D6E9304D
:1002E0000000D7EA300000D8EB300000D9EC300035
:1002F00000DAED300000DBEF300000DCF23000000F
:10030000A6F3300000DDFB300000A5FC300000B09B
:1003100000000000240027002A0000000000250043
:1003200028002B0000000000230026002900040400
:10033000040404040404020202020202030303038D
:100340000303010204081020408001020408102069
:100350000102040810200000000700020100000351
:10036000040600000000000000007C057505112453
:100370001FBECFEFD8E0DEBFCDBF11E0A0E0B1E0FF
:10038000E4E2F6E102C005900D92AE32B107D9F772
:1003900011E0AEE2B1E001C01D92A336B107E1F772
:1003A00013E0CCE6D3E004C02297FE010E94010BCB
:1003B000CA36D107C9F70E94A90A0C94050B0C9400
:1003C0000000CF93DF93BC018230910510F462E00E
:1003D00070E0A0916101B0916201ED01E0E0F0E018
:1003E00040E050E021C0888199818617970769F421
:1003F0008A819B81309719F09383828304C0909304
:10040000620180936101FE0134C06817790738F4F6
:100410004115510519F08417950708F4AC01FE0148
:100420008A819B819C01E9012097E9F641155105DC
:10043000A9F1CA01861B970B049708F4BA01E0E002
:10044000F0E02AC08D919C91119784179507F9F4DB
:100450006417750781F412968D919C9113973097CC
:1004600019F09383828304C09093620180936101A9
:10047000FD0132964CC0CA01861B970BFD01E80FA7
:10048000F91F6193719302978D939C9340C0FD0176
:10049000828193819C01D9011097A1F680915F011F
:1004A00090916001892B41F480910E0190910F0190
:1004B0009093600180935F01409110015091110170
:1004C0004115510541F44DB75EB780910C019091F3
:1004D0000D01481B590B20915F0130916001CA0149
:1004E000821B930B8617970780F0AB014E5F5F4F1F
:1004F0008417950750F0420F531F509360014093AB
:100500005F01F9016193719302C0E0E0F0E0CF0177
:10051000DF91CF910895CF93DF93009709F450C0F6
:10052000EC0122971B821A82A0916101B0916201B5
:10053000109709F140E050E0AC17BD0708F1BB830C
:10054000AA83FE0121913191E20FF31FAE17BF077D
:1005500079F48D919C911197280F391F2E5F3F4F91
:100560003983288312968D919C9113979B838A835C
:100570004115510571F4D0936201C093610120C00F
:1005800012968D919C911397AD01009711F0DC01AB
:10059000D3CFFA01D383C28321913191E20FF31FAC
:1005A000CE17DF0769F488819981280F391F2E5FE4
:1005B0003F4FFA01318320838A819B819383828319
:1005C000DF91CF9108950F931F93CF93DF93182F4F
:1005D000092FE82FF92FDF010D900020E9F7CD0159
:1005E0008E1B9F0B0E94E101EC01009721F0612F0F
:1005F000702F0E940103CE01DF91CF911F910F91C7
:100600000895FB01DC0101900D920020E1F70895AF
:100610000F931F938C01FC0185899689618D40E0C1
:100620000E94340581E090E00E948F09F8018589DD
:100630009689618D41E00E94340581E090E00E943E
:100640008F09F80185899689618D40E00E94340503
:1006500084E690E00E948F091F910F910895CF9238
:10066000DF92EF92FF920F931F93CF93DF937C0162
:100670008C01C0E0D0E0C62EDD24A6010C2E02C005
:10068000559547950A94E2F74170F7018589968957
:10069000F801628D0E94340521960F5F1F4FC43010
:1006A000D10559F7C7010E940803DF91CF911F912F
:1006B0000F91FF90EF90DF90CF9008952F923F928F
:1006C0004F925F926F927F928F929F92AF92BF9262
:1006D000CF92DF92EF92FF920F931F93DF93CF930E
:1006E000CDB7DEB728970FB6F894DEBF0FBECDBFEB
:1006F0004C016DB67EB68E010F5F1F4FC8010E9480
:10070000A80689819A812DB73EB7281B390B0FB6F1
:10071000F8943EBF0FBE2DBFEDB6FEB60894E11CA7
:10072000F11C3E2C2F2C6701AA24BB24280141C0B8
:10073000C2010E94B20516161706180619060CF01B
:100740003EC06E377105810591051CF4D6016C938E
:100750002AC02FEFF601208300E010E00BC0FD015E
:10076000E459FF4FE491D601EC930F5F1F4F083817
:100770001105C9F0D801AA0FBB1FAA0FBB1FA00FFC
:10078000B11FFD01E859FF4F2591359145915491D5
:10079000621773078407950730F026173707480755
:1007A000590719F7DCCF0894A11CB11C0894C11C8F
:1007B000D11C89819A81A816B90608F4B9CFEA0C30
:1007C000FB1CF7011082C401632D722D0E94FC0AEC
:1007D000182F092FCE0101960E94A206812F902F7B
:1007E0000FB6F8947EBE0FBE6DBE28960FB6F89475
:1007F000DEBF0FBECDBFCF91DF911F910F91FF9054
:10080000EF90DF90CF90BF90AF909F908F907F90B0
:100810006F905F904F903F902F900895CF93DF930C
:10082000EC01423018F08AA188608AA34EA31FA26F
:10083000222329F0413019F48AA184608AA380E53B
:1008400093EC0E948F098D899E896F8940E00E94F8
:1008500034058D899E89698D40E00E943405688D3C
:100860006F3F29F08D899E8940E00E9434056AA17E
:1008700064FD1DC0CE0163E00E942F0384E991E175
:100880000E948F09CE0163E00E942F0384E991E169
:100890000E948F09CE0163E00E942F0386E990E059
:1008A0000E948F09CE0162E00E942F0316C0606291
:1008B000CE010E94BA0784E991E10E948F096AA1E2
:1008C0006062CE010E94BA0786E990E00E948F091B
:1008D0006AA16062CE010E94BA076AA16062CE017D
:1008E0000E94BA0784E08BA3CE010E94BE07CE010E
:1008F0000E94F70782E08CA3CE0166E00E94BA074F
:10090000DF91CF9108956F927F928F929F92AF92D5
:10091000BF92CF92DF92EF92FF920F931F93DF93DC
:10092000CF93CDB7DEB73C01D62EB42E922E84E005
:1009300090E00E94BB0A182FF92E6D2D4B2D292D0A
:100940000E942405F301158BF68A078BE18EC28E77
:10095000A38E848E8989858F12A2C30160E141E054
:1009600020E00E940E04CF91DF911F910F91FF9024
:10097000EF90DF90CF90BF90AF909F908F907F903F
:100980006F9008950F931F938C0186E191E0F80119
:1009900091838083858996890E94B80AF801168A16
:1009A000158AC8010E94B80A1F910F9108950F93EC
:1009B0001F938C0186E191E0F80191838083858902
:1009C00096890E94B80AF801168A158A1F910F911C
:1009D00008958F92AF92BF92CF92DF92EF92FF92E3
:1009E0000F931F935C01162FF42ED22E6FE041E07F
:1009F00022E003E0F4E0EF2EE5E0CE2E0E94B50801
:100A000086E191E0F501918380830F9285E0EDB757
:100A1000FEB78183C501612F4F2D2D2D0FE0EE24F0
:100A2000E39472E0C72E53E0A52E34E0832E0E949B
:100A300083040F901F910F91FF90EF90DF90CF9064
:100A4000BF90AF908F9008950F931F938C01842FC8
:100A5000F80161834283238360E00E94130AF80156
:100A600010821F910F9108950F931F93CF93DF93DF
:100A7000EC01162F042F898160E00E94130A81E0A7
:100A800090E002C0880F991F1A95E2F72881002391
:100A900019F48095282301C0282B28838B816A8133
:100AA00041E028810E94670A898161E00E94130A5F
:100AB000DF91CF911F910F9108958130910559F4E5
:100AC0006F5F7F4F89F48EE291E068E04CE02BE0AD
:100AD0000E94E9040895892B39F46F5F7F4F21F458
:100AE0008EE291E00E94D704089580E090E06FEFDD
:100AF0007FEF0E945D05089581E090E06FEF7FEF4A
:100B00000E945D050895CF93DF938EE291E060E14E
:100B100042E020E00E940E048EE291E060E041E0BD
:100B20000E94C807C0E0D0E08EE291E060E071E092
:100B30000E945E0364EF71E080E090E00E9436095D
:100B40002196C830D10574F7EFCF88E061E00E94AC
:100B5000D4098CE061E00E94D4098BE061E00E943E
:100B6000D4090895AF92BF92CF92DF92EF92FF9295
:100B70000F931F93CF93DF93EC01EC81FD814E81A6
:100B80005F81E40FF51F908197FD09C0E92EFF24D6
:100B9000E7FCF0940F2D1F2D4F5F5F4F2DC0292FC5
:100BA000332727FD309525FD2AC08181E82EFF24BB
:100BB000E7FCF0940F2D1F2D3FE3A32EB12CC12C89
:100BC000D12CEA20FB200C211D21892F992787FD9C
:100BD0009095A92FB92F8F719070A070B07026E0FA
:100BE000880F991FAA1FBB1F2A95D1F7E82AF92A57
:100BF0000A2B1B2B4E5F5F4F5F834E838DC024FDFE
:100C00003BC08281E82EFF24E7FCF0940F2D1F2DBE
:100C1000AFE3AA2EB12CC12CD12CEA20FB200C2151
:100C20001D21892F992787FD9095A92FB92F7CE049
:100C3000880F991FAA1FBB1F7A95D1F7A070B070BB
:100C4000E82AF92A0A2B1B2B8181992787FD909589
:100C5000A92FB92F8F739070A070B07066E0880FC5
:100C6000991FAA1FBB1F6A95D1F7E82AF92A0A2BF8
:100C70001B2B4D5F5F4FC0CF23FD4EC08381E82EFD
:100C8000FF24E7FCF0940F2D1F2D2FE330E040E010
:100C900050E0E222F32204231523892F992787FDB0
:100CA0009095A92FB92F87709070A070B07042E115
:100CB000880F991FAA1FBB1F4A95D1F7E82AF92A66
:100CC0000A2B1B2B8181992787FD9095A92FB92F7E
:100CD0008F739070A070B0703CE0880F991FAA1FAE
:100CE000BB1F3A95D1F7E82AF92A0A2B1B2B8281E0
:100CF000992787FD9095A92FB92F8F739070A070B9
:100D0000B07026E0880F991FAA1FBB1F2A95D1F744
:100D1000E82AF92A0A2B1B2B2E813F818A819B818D
:100D20002817390710F01F821E82B701C801DF9112
:100D3000CF911F910F91FF90EF90DF90CF90BF90D8
:100D4000AF900895FC01848195810E948B020895E3
:100D5000CF93DF93EC01CB01FB0101900020E9F779
:100D60003197E61BF70BFB83EA830E94E3028C8337
:100D70009D83198218821F821E8234C0EC81FD81FE
:100D8000E20FF31FE081E7FD06C08881998101969B
:100D90009983888322C0FF27E7FDF095E5FD08C011
:100DA000888199810196998388832F5F3F4F13C073
:100DB000E4FD08C0888199810196998388832E5F1C
:100DC0003F4F09C0E3FD09C088819981019699834D
:100DD00088832D5F3F4F3F832E838E819F810196B5
:100DE0009F838E832E813F818A819B8128173907BB
:100DF00028F21F821E82DF91CF9108950F931F93D7
:100E00008C01FC01868160E00E94130A81E090E081
:100E10000E948F09F801868161E00E94130A81E037
:100E200090E00E948F09F801868160E00E94130A19
:100E300084E690E00E948F091F910F910895CF9250
:100E4000DF92EF92FF920F931F93CF93DF93D82EF1
:100E5000C92E282F392FC9018C01C0E0D0E0E62E21
:100E6000FF24F801878161E00E94D409B7010C2EAC
:100E700002C0759567950A94E2F76170F801878161
:100E80000E94130A21960F5F1F4FC830D10549F702
:100E90008D2D9C2D0E94FE06DF91CF911F910F9109
:100EA000FF90EF90DF90CF900895CF92DF92EF9276
:100EB000FF920F931F93CF93DF93D82EC92E282F25
:100EC000392FC9018C01C0E0D0E0E62EFF24F801E3
:100ED000878161E00E94D409B7010C2E02C075958C
:100EE00067950A94E2F76170F80187810E94130AFE
:100EF00021960F5F1F4FC430D10549F78D2D9C2DD2
:100F00000E94FE06DF91CF911F910F91FF90EF900D
:100F1000DF90CF9008951F93CF93DF93EC01162FAE
:100F20008C81642F0E94130A8D818F3F19F060E03D
:100F30000E94130A8F8584FF05C0CE01612F0E9495
:100F40001F070EC0612F70E084E0759567958A9544
:100F5000E1F7CE010E945507CE01612F0E9455078F
:100F6000DF91CF911F91089541E00E948B0781E0AE
:100F700090E0089540E00E948B070895FC0160898D
:100F8000862F8460808B6C60CF010E94BA07089521
:100F9000DF93CF93CDB7DEB728970FB6F894DEBFB7
:100FA0000FBECDBF9C01FE013196A6E2B1E088E004
:100FB0000D9001928150E1F7F9018389481710F0F3
:100FC000482F4150E42FF0E0EE0FFF1FEC0FFD1F04
:100FD0008181680F6068C9010E94BA0728960FB620
:100FE000F894DEBF0FBECDBFCF91DF91089561E0D1
:100FF0000E94BA0780ED97E00E948F090895CF9371
:10100000DF93EC01423018F08F8588608F874B8B1F
:101010001C8A222329F0413019F48F8584608F8740
:1010200080E593EC0E948F098C8160E00E94130A96
:101030008E8160E00E94130A8D818F3F19F060E07D
:101040000E94130A6F8564FD1DC0CE0163E00E94FB
:10105000550784E991E10E948F09CE0163E00E9467
:10106000550784E991E10E948F09CE0163E00E9457
:10107000550786E990E00E948F09CE0162E00E9448
:10108000550716C06062CE010E94BA0784E991E15B
:101090000E948F096F856062CE010E94BA0786E9BF
:1010A00090E00E948F096F856062CE010E94BA07AE
:1010B0006F856062CE010E94BA0784E0888BCE0102
:1010C0000E94BE07CE010E94F70782E0898BCE0105
:1010D00066E00E94BA07DF91CF9108956F927F92E8
:1010E0008F92AF92CF92EF920F931F93DF93CF9394
:1010F000CDB7DEB73C01162F842FF301448325833F
:101100000683E782C086A18682869D8593879E8519
:1011100094879F8595879889968761E00E94D40976
:10112000F30185818F3F19F061E00E94D409F3013A
:10113000868161E00E94D409112319F0F30117861A
:1011400003C080E1F3018787C30160E141E020E053
:101150000E94FF07CF91DF911F910F91EF90CF90E9
:10116000AF908F907F906F9008958F92AF92CF92B3
:10117000EF920F931F93CF93DF93DC01362F542F01
:10118000722F102FAE2C8C2C13961C921E9212973D
:1011900082E291E011969C938E9300D000D0EDB73F
:1011A000FEB73196CDB7DEB7198211821282138253
:1011B000CD0161E0432F2FEF052FE72EC12E0E94B6
:1011C0006E080F900F900F900F90DF91CF911F91AD
:1011D0000F91EF90CF90AF908F9008951F920F9244
:1011E0000FB60F9211242F933F938F939F93AF933A
:1011F000BF9380915A0190915B01A0915C01B091E5
:101200005D0130915E010196A11DB11D232F2D5F5F
:101210002D3720F02D570196A11DB11D20935E01A1
:1012200080935A0190935B01A0935C01B0935D01A0
:101230008091560190915701A0915801B0915901A8
:101240000196A11DB11D8093560190935701A09363
:101250005801B0935901BF91AF919F918F913F91E8
:101260002F910F900FBE0F901F9018959B01AC010E
:101270007FB7F8948091560190915701A091580141
:10128000B091590166B5A89B05C06F3F19F0019652
:10129000A11DB11D7FBFBA2FA92F982F8827860FB8
:1012A000911DA11DB11D62E0880F991FAA1FBB1FD0
:1012B0006A95D1F7BC012DC0FFB7F8948091560113
:1012C00090915701A0915801B0915901E6B5A89BA2
:1012D00005C0EF3F19F00196A11DB11DFFBFBA2F48
:1012E000A92F982F88278E0F911DA11DB11DE2E017
:1012F000880F991FAA1FBB1FEA95D1F7861B970B72
:10130000885E9340C8F221503040404050406851C0
:101310007C4F211531054105510571F6089501975E
:1013200039F0880F991F880F991F02970197F1F7DD
:101330000895789484B5826084BD84B5816084BD4D
:1013400085B5826085BD85B5816085BDEEE6F0E03E
:10135000808181608083E1E8F0E01082808182609A
:101360008083808181608083E0E8F0E0808181601B
:101370008083E1EBF0E0808184608083E0EBF0E04B
:10138000808181608083EAE7F0E0808184608083EF
:101390008081826080838081816080838081806899
:1013A00080831092C1000895CF93DF93482F50E0BF
:1013B000CA018E5B9C4FFC013491425D5C4FFA0187
:1013C0008491882369F190E0880F991FFC01E05F08
:1013D000FC4FA591B491FC01E65EFC4FC591D49100
:1013E000662351F42FB7F8948C91932F909589230D
:1013F0008C93888189230BC0623061F42FB7F894F5
:101400008C91932F909589238C938881832B88834B
:101410002FBF06C09FB7F8948C91832B8C939FBFEE
:10142000DF91CF910895482F50E0CA018A5A9C4F0E
:10143000FC012491CA018E5B9C4FFC019491425D9A
:101440005C4FFA013491332309F440C0222351F157
:10145000233071F0243028F42130A1F0223011F52E
:1014600014C02630B1F02730C1F02430D9F404C0C4
:10147000809180008F7703C0809180008F7D809362
:10148000800010C084B58F7702C084B58F7D84BD85
:1014900009C08091B0008F7703C08091B0008F7D2C
:1014A0008093B000E32FF0E0EE0FFF1FE65EFC4FED
:1014B000A591B4912FB7F894662321F48C9190955F
:1014C000892302C08C91892B8C932FBF0895BF92E2
:1014D000CF92DF92EF92FF920F931F93CF93DF9300
:1014E000E82EF62EB42EC7E0D0E0022F10E087E001
:1014F000C82ED12CBB2059F4B6016C1B7D0BC80142
:1015000002C0959587956A95E2F7BC0107C0B801BE
:101510000C2E02C0759567950A94E2F761708E2DC6
:101520000E94130A8F2D61E00E94130A8F2D60E044
:101530000E94130A21979FEFCF3FD907D9F6DF9179
:10154000CF911F910F91FF90EF90DF90CF90BF90C0
:101550000895CF93DF930E9499090E94A505C0E0EA
:10156000D0E00E9483052097E1F30E940000F9CFAC
:101570000E948B0208950E94E1010895CF92DF92AC
:10158000EF92FF920F931F93CF93DF937C016B0138
:101590008A01C0E0D0E00FC0D6016D916D01D70186
:1015A000ED91FC910190F081E02DC7010995C80FE4
:1015B000D91F015010400115110571F7CE01DF91BF
:1015C000CF911F910F91FF90EF90DF90CF900895F2
:1015D000CF93DF93DB010D900020E9F71197A61B55
:1015E000B70BEC01E881F9810280F381E02DAD01B8
:1015F0000995DF91CF9108950E94E80A0895EE0FB2
:10160000FF1F0590F491E02D099413E0CCE6D3E0A0
:1016100004C0FE010E94010B2296CE36D107C9F705
:04162000F894FFCF6C
:1016240068656C6C6F20776F726C640020006301D6
:10163400000000000000B407BE0AD704C204000082
:0E1644000000B407BE0A00004000140054006D
:00000001FF
