:100000000C9461000C947E000C947E000C947E0095
:100010000C947E000C947E000C947E000C947E0068
:100020000C947E000C947E000C947E000C947E0058
:100030000C947E000C947E000C947E000C947E0048
:100040000C9408040C947E000C947E000C947E00AA
:100050000C947E000C947E000C947E000C947E0028
:100060000C947E000C947E00000000002400270009
:100070002A0000000000250028002B0000000000DE
:1000800023002600290004040404040404040202DA
:100090000202020203030303030301020408102007
:1000A0004080010204081020010204081020000012
:1000B0000007000201000003040600000000000029
:1000C000000011241FBECFEFD8E0DEBFCDBF11E08E
:1000D000A0E0B1E0E8E0FDE002C005900D92A8329A
:1000E000B107D9F711E0A8E2B1E001C01D92A93330
:1000F000B107E1F70E9478050C9482060C94000089
:10010000CF93DF93BC018230910510F462E070E080
:10011000A0913701B0913801ED01E0E0F0E040E05E
:1001200050E021C0888199818617970769F48A81F8
:100130009B81309719F09383828304C09093380198
:1001400080933701FE0134C06817790738F44115F0
:10015000510519F08417950708F4AC01FE018A8156
:100160009B819C01E9012097E9F641155105A9F110
:10017000CA01861B970B049708F4BA01E0E0F0E08F
:100180002AC08D919C91119784179507F9F46417F3
:10019000750781F412968D919C911397309719F001
:1001A0009383828304C09093380180933701FD01CB
:1001B00032964CC0CA01861B970BFD01E80FF91F50
:1001C0006193719302978D939C9340C0FD0182814E
:1001D00093819C01D9011097A1F6809135019091EE
:1001E0003601892B41F48091100190911101909377
:1001F0003601809335014091120150911301411550
:10020000510541F44DB75EB780910E0190910F01F9
:10021000481B590B2091350130913601CA01821BD0
:10022000930B8617970780F0AB014E5F5F4F8417E3
:10023000950750F0420F531F5093360140933501FC
:10024000F9016193719302C0E0E0F0E0CF01DF912A
:10025000CF910895CF93DF93009709F450C0EC013C
:1002600022971B821A82A0913701B0913801109712
:1002700009F140E050E0AC17BD0708F1BB83AA8349
:10028000FE0121913191E20FF31FAE17BF0779F400
:100290008D919C911197280F391F2E5F3F4F398305
:1002A000288312968D919C9113979B838A83411585
:1002B000510571F4D0933801C093370120C01296D4
:1002C0008D919C911397AD01009711F0DC01D3CF74
:1002D000FA01D383C28321913191E20FF31FCE172C
:1002E000DF0769F488819981280F391F2E5F3F4FFE
:1002F000FA01318320838A819B8193838283DF91FA
:10030000CF9108950F931F938C01FC0184819581F7
:10031000678140E00E94820381E090E00E945E04D9
:10032000F80184819581678141E00E94820381E028
:1003300090E00E945E04F80184819581678140E02D
:100340000E94820384E690E00E945E041F910F9158
:100350000895CF92DF92EF92FF920F931F93CF9366
:10036000DF937C018C01C0E0D0E0C62EDD24A60125
:100370000C2E02C0559547950A94E2F74170F7019B
:1003800084819581F80160850E94820321960F5F28
:100390001F4FC830D10559F7C7010E948201DF9174
:1003A000CF911F910F91FF90EF90DF90CF90089524
:1003B000CF92DF92EF92FF920F931F93CF93DF9331
:1003C0007C018C01C0E0D0E0C62EDD24A6010C2EFD
:1003D00002C0559547950A94E2F74170F701848170
:1003E0009581F80160850E94820321960F5F1F4F5F
:1003F000C430D10559F7C7010E948201DF91CF9126
:100400001F910F91FF90EF90DF90CF9008951F9371
:10041000CF93DF93EC01162F8C819D816E810E941A
:100420008203888984FF05C0CE01612F0E94A90143
:100430000EC0612F70E084E0759567958A95E1F7AD
:10044000CE010E94D801CE01612F0E94D801DF9118
:10045000CF911F91089541E00E94070281E090E052
:10046000089540E00E9407020895FC016189862FEB
:100470008460818B6C60CF010E9431020895DF930C
:10048000CF93CDB7DEB728970FB6F894DEBF0FBE77
:10049000CDBF9C01FE013196A0E2B1E088E00D9055
:1004A00001928150E1F7F9018389481710F0482F34
:1004B0004150E42FF0E0EE0FFF1FEC0FFD1F818194
:1004C000680F6068C9010E94310228960FB6F8943F
:1004D000DEBF0FBECDBFCF91DF91089561E00E94D6
:1004E000310280ED97E00E945E040895CF93DF9380
:1004F000EC01423018F088898860888B4B8B1C8A0D
:10050000222329F0413019F488898460888B80E5A2
:1005100093EC0E945E048C819D816E8140E00E947C
:1005200082038C819D816F8140E00E9482036889F3
:1005300064FD1DC0CE0163E00E94D80184E991E111
:100540000E945E04CE0163E00E94D80184E991E13B
:100550000E945E04CE0163E00E94D80186E990E02B
:100560000E945E04CE0162E00E94D80116C0606263
:10057000CE010E94310284E991E10E945E04688903
:100580006062CE010E94310286E990E00E945E0422
:1005900068896062CE010E94310268896062CE0182
:1005A0000E94310284E0898BCE010E943502CE0187
:1005B0000E946E0282E08A8BCE0166E00E943102C8
:1005C000DF91CF9108956F927F928F929F92AF9219
:1005D000BF92CF92DF92EF92FF920F931F93DF9320
:1005E000CF93CDB7DEB73C01D62EB42E922E84E049
:1005F00090E00E948A05182FF92E6D2D4B2D292D84
:100600000E947203F3011483F5820683E782C08699
:10061000A186828689898387148615861686178621
:10062000108AC30160E141E020E00E947602CF9190
:10063000DF911F910F91FF90EF90DF90CF90BF90CF
:10064000AF909F908F907F906F9008958F92AF9210
:10065000CF92EF920F93FC011382128288E191E016
:10066000918380830F9280E2ADB7BEB711968C93D1
:10067000CF0101E0E2E0EE2E74E0C72E58E0A52E97
:1006800030E1832E0E94E3020F900F91EF90CF9004
:10069000AF908F9008950F931F938C0188E191E0A4
:1006A000F80191838083848195810E948705F801F8
:1006B00015821482C8010E9487051F910F91089529
:1006C0000F931F938C0188E191E0F801918380835F
:1006D000848195810E948705F801158214821F91FB
:1006E0000F9108950F931F938C01842FF80161835C
:1006F0004283238360E00E94E204F80110821F918C
:100700000F9108950F931F93CF93DF93EC01062F62
:10071000142F898160E00E94E2048881112319F47A
:100720000095802301C0802B88838B816A8141E002
:1007300028810E943605898161E00E94E204DF91F0
:10074000CF911F910F9108950F931F9380912801CE
:100750009091290160E041E00E943F020091280150
:10076000109129010E94500428EE33E040E050E04F
:100770000E946006C801BA01A9012AE030E00E9487
:100780002F061F910F9108950F931F9388E061E04A
:100790000E94A3048CE061E00E94A3048BE061E06E
:1007A0000E94A3048DE061E00E94A30485E190E033
:1007B0000E948A05182F092F68E04CE02BE00E9468
:1007C0002603109328010093290184E090E00E9401
:1007D0008A05182F092F68E04CE02BE00E94720375
:1007E00010932A0100932B018091280190912901F7
:1007F00060E142E020E00E94760280912801909121
:10080000290160E071E00E943E061F910F9108955A
:100810001F920F920FB60F9211242F933F938F9335
:100820009F93AF93BF938091300190913101A0913C
:100830003201B0913301309134010196A11DB11DF7
:10084000232F2D5F2D3720F02D570196A11DB11DAF
:10085000209334018093300190933101A0933201B1
:10086000B093330180912C0190912D01A0912E0124
:10087000B0912F010196A11DB11D80932C01909381
:100880002D01A0932E01B0932F01BF91AF919F91A5
:100890008F913F912F910F900FBE0F901F90189541
:1008A0008FB7F8942091300130913101409132019D
:1008B000509133018FBFB901CA010895019739F0F2
:1008C000880F991F880F991F02970197F1F70895D4
:1008D000789484B5826084BD84B5816084BD85B51B
:1008E000826085BD85B5816085BDEEE6F0E08081E2
:1008F00081608083E1E8F0E0108280818260808303
:10090000808181608083E0E8F0E080818160808385
:10091000E1EBF0E0808184608083E0EBF0E08081B7
:1009200081608083EAE7F0E0808184608083808159
:100930008260808380818160808380818068808301
:100940001092C1000895CF93DF93482F50E0CA0161
:1009500086569F4FFC0134914A575F4FFA018491AC
:10096000882369F190E0880F991FFC01E859FF4F37
:10097000A591B491FC01EE58FF4FC591D491662327
:1009800051F42FB7F8948C91932F909589238C93E1
:10099000888189230BC0623061F42FB7F8948C9161
:1009A000932F909589238C938881832B88832FBFE5
:1009B00006C09FB7F8948C91832B8C939FBFDF91D7
:1009C000CF910895482F50E0CA0182559F4FFC01F6
:1009D0002491CA0186569F4FFC0194914A575F4F5C
:1009E000FA013491332309F440C0222351F123301A
:1009F00071F0243028F42130A1F0223011F514C018
:100A00002630B1F02730C1F02430D9F404C08091F1
:100A100080008F7703C0809180008F7D809380005D
:100A200010C084B58F7702C084B58F7D84BD09C0A6
:100A30008091B0008F7703C08091B0008F7D80934C
:100A4000B000E32FF0E0EE0FFF1FEE58FF4FA5912F
:100A5000B4912FB7F894662321F48C919095892353
:100A600002C08C91892B8C932FBF0895BF92CF9297
:100A7000DF92EF92FF920F931F93CF93DF93E82EB5
:100A8000F62EB42EC7E0D0E0022F10E087E0C82E8B
:100A9000D12CBB2059F4B6016C1B7D0BC80102C0E0
:100AA000959587956A95E2F7BC0107C0B8010C2EB1
:100AB00002C0759567950A94E2F761708E2D0E94C9
:100AC000E2048F2D61E00E94E2048F2D60E00E941D
:100AD000E20421979FEFCF3FD907D9F6DF91CF915D
:100AE0001F910F91FF90EF90DF90CF90BF900895EE
:100AF000CF93DF930E9468040E94C403C0E0D0E05B
:100B00000E94A4032097E1F30E940000F9CF0E9405
:100B10002A0108950E9480000895CF92DF92EF92FB
:100B2000FF920F931F93CF93DF937C016B018A0198
:100B3000C0E0D0E00FC0D6016D916D01D701ED91FD
:100B4000FC910190F081E02DC7010995C80FD91FD4
:100B5000015010400115110571F7CE01DF91CF91C1
:100B60001F910F91FF90EF90DF90CF900895CF935A
:100B7000DF93DB010D900020E9F71197A61BB70B5F
:100B8000EC01E881F9810280F381E02DAD01099546
:100B9000DF91CF9108954F925F927F928F929F92B3
:100BA000AF92BF92CF92DF92EF92FF920F931F937B
:100BB000DF93CF93CDB7DEB7A1970FB6F894DEBF22
:100BC0000FBECDBF2C01742ECB01223008F42AE0D9
:100BD00019A231E2C32ED12CCC0EDD1E822E992417
:100BE000AA24BB24672D752FA50194010E946006DD
:100BF00079018A01C801B701A50194010E9441064B
:100C0000472D461B0894C108D1084A3014F4405DB2
:100C100001C0495CF6014083E114F10401051105AE
:100C200021F07E2C5F2DC801DDCFC201B6010E94EC
:100C3000B705A1960FB6F894DEBF0FBECDBFCF911A
:100C4000DF911F910F91FF90EF90DF90CF90BF90B9
:100C5000AF909F908F907F905F904F900895DC01B0
:100C60002115310541F4ED91FC910190F081E02DC9
:100C7000642F099508950E94CB0508950E94B70539
:100C80000895629FD001739FF001829FE00DF11DD6
:100C9000649FE00DF11D929FF00D839FF00D749FF6
:100CA000F00D659FF00D9927729FB00DE11DF91FA2
:100CB000639FB00DE11DF91FBD01CF0111240895FF
:100CC000A1E21A2EAA1BBB1BFD010DC0AA1FBB1F50
:100CD000EE1FFF1FA217B307E407F50720F0A21BC2
:100CE000B30BE40BF50B661F771F881F991F1A942F
:100CF00069F760957095809590959B01AC01BD0159
:080D0000CF010895F894FFCF24
:100D080068656C6C6F2C20776F726C642100200012
:100D180039010000000000002B028D0560034B0321
:080D280000004000140054001B
:00000001FF
